{
  "_format": "hh-sol-artifact-1",
  "contractName": "YugasInsurance",
  "sourceName": "contracts/YugasInsurance.sol",
  "abi": [
    {
      "inputs": [],
      "stateMutability": "payable",
      "type": "constructor"
    },
    {
      "anonymous": false,
      "inputs": [
        {
          "indexed": true,
          "internalType": "address",
          "name": "from",
          "type": "address"
        },
        {
          "indexed": false,
          "internalType": "uint256",
          "name": "timestamp",
          "type": "uint256"
        },
        {
          "indexed": false,
          "internalType": "string",
          "name": "regNo",
          "type": "string"
        },
        {
          "indexed": false,
          "internalType": "uint256",
          "name": "applicationId",
          "type": "uint256"
        },
        {
          "indexed": false,
          "internalType": "string",
          "name": "claimId",
          "type": "string"
        },
        {
          "indexed": false,
          "internalType": "string",
          "name": "_claimDescription",
          "type": "string"
        }
      ],
      "name": "NewClaim",
      "type": "event"
    },
    {
      "anonymous": false,
      "inputs": [
        {
          "indexed": false,
          "internalType": "uint256",
          "name": "timestamp",
          "type": "uint256"
        },
        {
          "indexed": false,
          "internalType": "string",
          "name": "regNo",
          "type": "string"
        },
        {
          "indexed": false,
          "internalType": "uint256",
          "name": "applicationId",
          "type": "uint256"
        },
        {
          "indexed": false,
          "internalType": "string",
          "name": "statusId",
          "type": "string"
        },
        {
          "indexed": false,
          "internalType": "uint256",
          "name": "amount",
          "type": "uint256"
        }
      ],
      "name": "NewClaimStatus",
      "type": "event"
    },
    {
      "anonymous": false,
      "inputs": [
        {
          "indexed": true,
          "internalType": "address",
          "name": "from",
          "type": "address"
        },
        {
          "indexed": false,
          "internalType": "uint256",
          "name": "timestamp",
          "type": "uint256"
        },
        {
          "indexed": false,
          "internalType": "string",
          "name": "regNo",
          "type": "string"
        },
        {
          "indexed": false,
          "internalType": "uint256",
          "name": "premium",
          "type": "uint256"
        },
        {
          "indexed": false,
          "internalType": "bytes32",
          "name": "riskId",
          "type": "bytes32"
        },
        {
          "indexed": false,
          "internalType": "uint256",
          "name": "applicationId",
          "type": "uint256"
        }
      ],
      "name": "NewPolicy",
      "type": "event"
    },
    {
      "inputs": [
        {
          "internalType": "string",
          "name": "_brand",
          "type": "string"
        },
        {
          "internalType": "string",
          "name": "_model",
          "type": "string"
        },
        {
          "internalType": "string",
          "name": "_regNo",
          "type": "string"
        },
        {
          "internalType": "uint256",
          "name": "_year",
          "type": "uint256"
        },
        {
          "internalType": "uint256",
          "name": "_chassis",
          "type": "uint256"
        },
        {
          "internalType": "uint256",
          "name": "_price",
          "type": "uint256"
        }
      ],
      "name": "applyForPolicy",
      "outputs": [],
      "stateMutability": "payable",
      "type": "function"
    },
    {
      "inputs": [
        {
          "internalType": "string",
          "name": "_regNo",
          "type": "string"
        },
        {
          "internalType": "uint256",
          "name": "_price",
          "type": "uint256"
        },
        {
          "internalType": "uint256",
          "name": "_applicationId",
          "type": "uint256"
        }
      ],
      "name": "confirmClaim",
      "outputs": [],
      "stateMutability": "payable",
      "type": "function"
    },
    {
      "inputs": [
        {
          "internalType": "string",
          "name": "_regNo",
          "type": "string"
        },
        {
          "internalType": "string",
          "name": "_claimDescription",
          "type": "string"
        },
        {
          "internalType": "uint256",
          "name": "_applicationId",
          "type": "uint256"
        }
      ],
      "name": "createClaim",
      "outputs": [],
      "stateMutability": "nonpayable",
      "type": "function"
    },
    {
      "inputs": [
        {
          "internalType": "string",
          "name": "_regNo",
          "type": "string"
        },
        {
          "internalType": "uint256",
          "name": "_applicationId",
          "type": "uint256"
        }
      ],
      "name": "declineClaim",
      "outputs": [],
      "stateMutability": "nonpayable",
      "type": "function"
    },
    {
      "inputs": [],
      "name": "getAllClaim",
      "outputs": [
        {
          "components": [
            {
              "internalType": "address",
              "name": "giver",
              "type": "address"
            },
            {
              "internalType": "uint256",
              "name": "timestamp",
              "type": "uint256"
            },
            {
              "internalType": "string",
              "name": "regNo",
              "type": "string"
            },
            {
              "internalType": "uint256",
              "name": "applicationId",
              "type": "uint256"
            },
            {
              "internalType": "string",
              "name": "claimId",
              "type": "string"
            },
            {
              "internalType": "string",
              "name": "_claimDescription",
              "type": "string"
            }
          ],
          "internalType": "struct YugasInsurance.Claim[]",
          "name": "",
          "type": "tuple[]"
        }
      ],
      "stateMutability": "view",
      "type": "function"
    },
    {
      "inputs": [],
      "name": "getAllClaimStatus",
      "outputs": [
        {
          "components": [
            {
              "internalType": "uint256",
              "name": "timestamp",
              "type": "uint256"
            },
            {
              "internalType": "string",
              "name": "regNo",
              "type": "string"
            },
            {
              "internalType": "uint256",
              "name": "applicationId",
              "type": "uint256"
            },
            {
              "internalType": "string",
              "name": "statusId",
              "type": "string"
            },
            {
              "internalType": "uint256",
              "name": "amount",
              "type": "uint256"
            }
          ],
          "internalType": "struct YugasInsurance.ClaimStatus[]",
          "name": "",
          "type": "tuple[]"
        }
      ],
      "stateMutability": "view",
      "type": "function"
    },
    {
      "inputs": [],
      "name": "getAllPolicy",
      "outputs": [
        {
          "components": [
            {
              "internalType": "address",
              "name": "giver",
              "type": "address"
            },
            {
              "internalType": "uint256",
              "name": "timestamp",
              "type": "uint256"
            },
            {
              "internalType": "string",
              "name": "regNo",
              "type": "string"
            },
            {
              "internalType": "uint256",
              "name": "premium",
              "type": "uint256"
            },
            {
              "internalType": "bytes32",
              "name": "riskId",
              "type": "bytes32"
            },
            {
              "internalType": "uint256",
              "name": "applicationId",
              "type": "uint256"
            }
          ],
          "internalType": "struct YugasInsurance.Policy[]",
          "name": "",
          "type": "tuple[]"
        }
      ],
      "stateMutability": "view",
      "type": "function"
    },
    {
      "inputs": [],
      "name": "getLatestPrice",
      "outputs": [
        {
          "internalType": "int256",
          "name": "",
          "type": "int256"
        }
      ],
      "stateMutability": "view",
      "type": "function"
    },
    {
      "inputs": [
        {
          "internalType": "string",
          "name": "source",
          "type": "string"
        }
      ],
      "name": "stringToBytes32",
      "outputs": [
        {
          "internalType": "bytes32",
          "name": "result",
          "type": "bytes32"
        }
      ],
      "stateMutability": "pure",
      "type": "function"
    }
  ],
  "bytecode": "0x6080604052336000806101000a81548173ffffffffffffffffffffffffffffffffffffffff021916908373ffffffffffffffffffffffffffffffffffffffff16021790555073d0d5e3db44de05e9f294bb0a3beeaf030de24ada600160006101000a81548173ffffffffffffffffffffffffffffffffffffffff021916908373ffffffffffffffffffffffffffffffffffffffff16021790555061221d806100a86000396000f3fe6080604052600436106100865760003560e01c806359d1db041161005957806359d1db04146101195780638aa8ef3d146101425780638afe15d91461016d5780638e15f47314610196578063cfb51928146101c157610086565b8063254b6ca61461008b5780634820ba8f146100b65780634c102e76146100d2578063594d7b24146100fd575b600080fd5b34801561009757600080fd5b506100a06101fe565b6040516100ad9190611b35565b60405180910390f35b6100d060048036038101906100cb9190611310565b61047d565b005b3480156100de57600080fd5b506100e7610720565b6040516100f49190611b57565b60405180910390f35b610117600480360381019061011291906114d8565b61088f565b005b34801561012557600080fd5b50610140600480360381019061013b919061147c565b6109ed565b005b34801561014e57600080fd5b50610157610b0e565b6040516101649190611b13565b60405180910390f35b34801561017957600080fd5b50610194600480360381019061018f91906113f1565b610caf565b005b3480156101a257600080fd5b506101ab610e5b565b6040516101b89190611b94565b60405180910390f35b3480156101cd57600080fd5b506101e860048036038101906101e391906112c7565b610f0b565b6040516101f59190611b79565b60405180910390f35b60606002805480602002602001604051908101604052809291908181526020016000905b8282101561047457838290600052602060002090600602016040518060c00160405290816000820160009054906101000a900473ffffffffffffffffffffffffffffffffffffffff1673ffffffffffffffffffffffffffffffffffffffff1673ffffffffffffffffffffffffffffffffffffffff168152602001600182015481526020016002820180546102b590611fb4565b80601f01602080910402602001604051908101604052809291908181526020018280546102e190611fb4565b801561032e5780601f106103035761010080835404028352916020019161032e565b820191906000526020600020905b81548152906001019060200180831161031157829003601f168201915b505050505081526020016003820154815260200160048201805461035190611fb4565b80601f016020809104026020016040519081016040528092919081815260200182805461037d90611fb4565b80156103ca5780601f1061039f576101008083540402835291602001916103ca565b820191906000526020600020905b8154815290600101906020018083116103ad57829003601f168201915b505050505081526020016005820180546103e390611fb4565b80601f016020809104026020016040519081016040528092919081815260200182805461040f90611fb4565b801561045c5780601f106104315761010080835404028352916020019161045c565b820191906000526020600020905b81548152906001019060200180831161043f57829003601f168201915b50505050508152505081526020019060010190610222565b50505050905090565b600081116104c0576040517f08c379a00000000000000000000000000000000000000000000000000000000081526004016104b790611baf565b60405180910390fd5b60006305f5e1006104cf610e5b565b600a6006856104de9190611eb2565b6104e89190611e81565b6104f29190611eb2565b6104fc9190611e81565b9050600087878760405160200161051593929190611a84565b6040516020818303038152906040528051906020012090506000600167ffffffffffffffff81111561054a576105496120d3565b5b6040519080825280602002602001820160405280156105785781602001602082028036833780820191505090505b50905083816000815181106105905761058f6120a4565b5b6020026020010181815250506000858585896105ac9190611e2b565b6105b69190611e2b565b6105c09190611e2b565b90503373ffffffffffffffffffffffffffffffffffffffff167f4c4991f5019b05d512372ee3da7e8f2b804d62b9d7118d68c73e68fe4584990f428a878786604051610610959493929190611bcf565b60405180910390a260046040518060c001604052803373ffffffffffffffffffffffffffffffffffffffff1681526020014281526020018a815260200186815260200185815260200183815250908060018154018082558091505060019003906000526020600020906006020160009091909190915060008201518160000160006101000a81548173ffffffffffffffffffffffffffffffffffffffff021916908373ffffffffffffffffffffffffffffffffffffffff1602179055506020820151816001015560408201518160020190805190602001906106f3929190611160565b50606082015181600301556080820151816004015560a08201518160050155505050505050505050505050565b60606004805480602002602001604051908101604052809291908181526020016000905b8282101561088657838290600052602060002090600602016040518060c00160405290816000820160009054906101000a900473ffffffffffffffffffffffffffffffffffffffff1673ffffffffffffffffffffffffffffffffffffffff1673ffffffffffffffffffffffffffffffffffffffff168152602001600182015481526020016002820180546107d790611fb4565b80601f016020809104026020016040519081016040528092919081815260200182805461080390611fb4565b80156108505780601f1061082557610100808354040283529160200191610850565b820191906000526020600020905b81548152906001019060200180831161083357829003601f168201915b50505050508152602001600382015481526020016004820154815260200160058201548152505081526020019060010190610744565b50505050905090565b60008361089b83610f35565b6040516020016108ac929190611ae4565b604051602081830303815290604052905060006305f5e1006108cc610e5b565b600a6008876108db9190611eb2565b6108e59190611e81565b6108ef9190611eb2565b6108f99190611e81565b90507f10473cf82cd79a9431b95b2fbf69e89d9c00796c7957adc390f53374a1d08a244286858585604051610932959493929190611c91565b60405180910390a160036040518060a001604052804281526020018781526020018581526020018481526020018381525090806001815401808255809150506001900390600052602060002090600502016000909190919091506000820151816000015560208201518160010190805190602001906109b2929190611160565b506040820151816002015560608201518160030190805190602001906109d9929190611160565b506080820151816004015550505050505050565b6000826109f983610f35565b604051602001610a0a929190611ab5565b604051602081830303815290604052905060007f10473cf82cd79a9431b95b2fbf69e89d9c00796c7957adc390f53374a1d08a244285858585604051610a54959493929190611c91565b60405180910390a160036040518060a00160405280428152602001868152602001858152602001848152602001838152509080600181540180825580915050600190039060005260206000209060050201600090919091909150600082015181600001556020820151816001019080519060200190610ad4929190611160565b50604082015181600201556060820151816003019080519060200190610afb929190611160565b5060808201518160040155505050505050565b60606003805480602002602001604051908101604052809291908181526020016000905b82821015610ca657838290600052602060002090600502016040518060a001604052908160008201548152602001600182018054610b6f90611fb4565b80601f0160208091040260200160405190810160405280929190818152602001828054610b9b90611fb4565b8015610be85780601f10610bbd57610100808354040283529160200191610be8565b820191906000526020600020905b815481529060010190602001808311610bcb57829003601f168201915b5050505050815260200160028201548152602001600382018054610c0b90611fb4565b80601f0160208091040260200160405190810160405280929190818152602001828054610c3790611fb4565b8015610c845780601f10610c5957610100808354040283529160200191610c84565b820191906000526020600020905b815481529060010190602001808311610c6757829003601f168201915b5050505050815260200160048201548152505081526020019060010190610b32565b50505050905090565b600083610cbb83610f35565b604051602001610ccc929190611a60565b60405160208183030381529060405290503373ffffffffffffffffffffffffffffffffffffffff167f29b6468d1cde035c6a424cf4deccbb10ce9763fa8f220d997db6c5afeef4c3404286858588604051610d2b959493929190611c29565b60405180910390a260026040518060c001604052803373ffffffffffffffffffffffffffffffffffffffff16815260200142815260200186815260200184815260200183815260200185815250908060018154018082558091505060019003906000526020600020906006020160009091909190915060008201518160000160006101000a81548173ffffffffffffffffffffffffffffffffffffffff021916908373ffffffffffffffffffffffffffffffffffffffff160217905550602082015181600101556040820151816002019080519060200190610e0e929190611160565b50606082015181600301556080820151816004019080519060200190610e35929190611160565b5060a0820151816005019080519060200190610e52929190611160565b50505050505050565b600080600160009054906101000a900473ffffffffffffffffffffffffffffffffffffffff1673ffffffffffffffffffffffffffffffffffffffff1663feaf968c6040518163ffffffff1660e01b815260040160a06040518083038186803b158015610ec657600080fd5b505afa158015610eda573d6000803e3d6000fd5b505050506040513d601f19601f82011682018060405250810190610efe9190611547565b5050509150508091505090565b600080829050600081511415610f27576000801b915050610f30565b60208301519150505b919050565b606060006001610f448461100d565b01905060008167ffffffffffffffff811115610f6357610f626120d3565b5b6040519080825280601f01601f191660200182016040528015610f955781602001600182028036833780820191505090505b509050600082602001820190505b600115611002578080600190039150507f3031323334353637383961626364656600000000000000000000000000000000600a86061a8153600a8581610fec57610feb612046565b5b0494506000851415610ffd57611002565b610fa3565b819350505050919050565b600080600090507a184f03e93ff9f4daa797ed6e38ed64bf6a1f010000000000000000831061106b577a184f03e93ff9f4daa797ed6e38ed64bf6a1f010000000000000000838161106157611060612046565b5b0492506040810190505b6d04ee2d6d415b85acef810000000083106110a8576d04ee2d6d415b85acef8100000000838161109e5761109d612046565b5b0492506020810190505b662386f26fc1000083106110d757662386f26fc1000083816110cd576110cc612046565b5b0492506010810190505b6305f5e1008310611100576305f5e10083816110f6576110f5612046565b5b0492506008810190505b612710831061112557612710838161111b5761111a612046565b5b0492506004810190505b60648310611148576064838161113e5761113d612046565b5b0492506002810190505b600a8310611157576001810190505b80915050919050565b82805461116c90611fb4565b90600052602060002090601f01602090048101928261118e57600085556111d5565b82601f106111a757805160ff19168380011785556111d5565b828001600101855582156111d5579182015b828111156111d45782518255916020019190600101906111b9565b5b5090506111e291906111e6565b5090565b5b808211156111ff5760008160009055506001016111e7565b5090565b600061121661121184611d17565b611cf2565b90508281526020810184848401111561123257611231612107565b5b61123d848285611f72565b509392505050565b600081519050611254816121a2565b92915050565b600082601f83011261126f5761126e612102565b5b813561127f848260208601611203565b91505092915050565b600081359050611297816121b9565b92915050565b6000815190506112ac816121b9565b92915050565b6000815190506112c1816121d0565b92915050565b6000602082840312156112dd576112dc612111565b5b600082013567ffffffffffffffff8111156112fb576112fa61210c565b5b6113078482850161125a565b91505092915050565b60008060008060008060c0878903121561132d5761132c612111565b5b600087013567ffffffffffffffff81111561134b5761134a61210c565b5b61135789828a0161125a565b965050602087013567ffffffffffffffff8111156113785761137761210c565b5b61138489828a0161125a565b955050604087013567ffffffffffffffff8111156113a5576113a461210c565b5b6113b189828a0161125a565b94505060606113c289828a01611288565b93505060806113d389828a01611288565b92505060a06113e489828a01611288565b9150509295509295509295565b60008060006060848603121561140a57611409612111565b5b600084013567ffffffffffffffff8111156114285761142761210c565b5b6114348682870161125a565b935050602084013567ffffffffffffffff8111156114555761145461210c565b5b6114618682870161125a565b925050604061147286828701611288565b9150509250925092565b6000806040838503121561149357611492612111565b5b600083013567ffffffffffffffff8111156114b1576114b061210c565b5b6114bd8582860161125a565b92505060206114ce85828601611288565b9150509250929050565b6000806000606084860312156114f1576114f0612111565b5b600084013567ffffffffffffffff81111561150f5761150e61210c565b5b61151b8682870161125a565b935050602061152c86828701611288565b925050604061153d86828701611288565b9150509250925092565b600080600080600060a0868803121561156357611562612111565b5b6000611571888289016112b2565b955050602061158288828901611245565b94505060406115938882890161129d565b93505060606115a48882890161129d565b92505060806115b5888289016112b2565b9150509295509295909350565b60006115ce83836118a5565b905092915050565b60006115e28383611922565b905092915050565b60006115f683836119b9565b905092915050565b61160781611f0c565b82525050565b600061161882611d78565b6116228185611dcb565b93508360208202850161163485611d48565b8060005b85811015611670578484038952815161165185826115c2565b945061165c83611da4565b925060208a01995050600181019050611638565b50829750879550505050505092915050565b600061168d82611d83565b6116978185611ddc565b9350836020820285016116a985611d58565b8060005b858110156116e557848403895281516116c685826115d6565b94506116d183611db1565b925060208a019950506001810190506116ad565b50829750879550505050505092915050565b600061170282611d8e565b61170c8185611ded565b93508360208202850161171e85611d68565b8060005b8581101561175a578484038952815161173b85826115ea565b945061174683611dbe565b925060208a01995050600181019050611722565b50829750879550505050505092915050565b61177581611f1e565b82525050565b61178481611f1e565b82525050565b61179381611f28565b82525050565b60006117a482611d99565b6117ae8185611dfe565b93506117be818560208601611f81565b6117c781612116565b840191505092915050565b60006117dd82611d99565b6117e78185611e0f565b93506117f7818560208601611f81565b61180081612116565b840191505092915050565b600061181682611d99565b6118208185611e20565b9350611830818560208601611f81565b80840191505092915050565b6000611849600883611e20565b915061185482612127565b600882019050919050565b600061186c600483611e20565b915061187782612150565b600482019050919050565b600061188f601383611e0f565b915061189a82612179565b602082019050919050565b600060a0830160008301516118bd6000860182611a42565b50602083015184820360208601526118d58282611799565b91505060408301516118ea6040860182611a42565b50606083015184820360608601526119028282611799565b91505060808301516119176080860182611a42565b508091505092915050565b600060c08301600083015161193a60008601826115fe565b50602083015161194d6020860182611a42565b50604083015184820360408601526119658282611799565b915050606083015161197a6060860182611a42565b50608083015184820360808601526119928282611799565b91505060a083015184820360a08601526119ac8282611799565b9150508091505092915050565b600060c0830160008301516119d160008601826115fe565b5060208301516119e46020860182611a42565b50604083015184820360408601526119fc8282611799565b9150506060830151611a116060860182611a42565b506080830151611a24608086018261176c565b5060a0830151611a3760a0860182611a42565b508091505092915050565b611a4b81611f52565b82525050565b611a5a81611f52565b82525050565b6000611a6c828561180b565b9150611a78828461180b565b91508190509392505050565b6000611a90828661180b565b9150611a9c828561180b565b9150611aa8828461180b565b9150819050949350505050565b6000611ac08261183c565b9150611acc828561180b565b9150611ad8828461180b565b91508190509392505050565b6000611aef8261185f565b9150611afb828561180b565b9150611b07828461180b565b91508190509392505050565b60006020820190508181036000830152611b2d818461160d565b905092915050565b60006020820190508181036000830152611b4f8184611682565b905092915050565b60006020820190508181036000830152611b7181846116f7565b905092915050565b6000602082019050611b8e600083018461177b565b92915050565b6000602082019050611ba9600083018461178a565b92915050565b60006020820190508181036000830152611bc881611882565b9050919050565b600060a082019050611be46000830188611a51565b8181036020830152611bf681876117d2565b9050611c056040830186611a51565b611c12606083018561177b565b611c1f6080830184611a51565b9695505050505050565b600060a082019050611c3e6000830188611a51565b8181036020830152611c5081876117d2565b9050611c5f6040830186611a51565b8181036060830152611c7181856117d2565b90508181036080830152611c8581846117d2565b90509695505050505050565b600060a082019050611ca66000830188611a51565b8181036020830152611cb881876117d2565b9050611cc76040830186611a51565b8181036060830152611cd981856117d2565b9050611ce86080830184611a51565b9695505050505050565b6000611cfc611d0d565b9050611d088282611fe6565b919050565b6000604051905090565b600067ffffffffffffffff821115611d3257611d316120d3565b5b611d3b82612116565b9050602081019050919050565b6000819050602082019050919050565b6000819050602082019050919050565b6000819050602082019050919050565b600081519050919050565b600081519050919050565b600081519050919050565b600081519050919050565b6000602082019050919050565b6000602082019050919050565b6000602082019050919050565b600082825260208201905092915050565b600082825260208201905092915050565b600082825260208201905092915050565b600082825260208201905092915050565b600082825260208201905092915050565b600081905092915050565b6000611e3682611f52565b9150611e4183611f52565b9250827fffffffffffffffffffffffffffffffffffffffffffffffffffffffffffffffff03821115611e7657611e75612017565b5b828201905092915050565b6000611e8c82611f52565b9150611e9783611f52565b925082611ea757611ea6612046565b5b828204905092915050565b6000611ebd82611f52565b9150611ec883611f52565b9250817fffffffffffffffffffffffffffffffffffffffffffffffffffffffffffffffff0483118215151615611f0157611f00612017565b5b828202905092915050565b6000611f1782611f32565b9050919050565b6000819050919050565b6000819050919050565b600073ffffffffffffffffffffffffffffffffffffffff82169050919050565b6000819050919050565b600069ffffffffffffffffffff82169050919050565b82818337600083830152505050565b60005b83811015611f9f578082015181840152602081019050611f84565b83811115611fae576000848401525b50505050565b60006002820490506001821680611fcc57607f821691505b60208210811415611fe057611fdf612075565b5b50919050565b611fef82612116565b810181811067ffffffffffffffff8211171561200e5761200d6120d3565b5b80604052505050565b7f4e487b7100000000000000000000000000000000000000000000000000000000600052601160045260246000fd5b7f4e487b7100000000000000000000000000000000000000000000000000000000600052601260045260246000fd5b7f4e487b7100000000000000000000000000000000000000000000000000000000600052602260045260246000fd5b7f4e487b7100000000000000000000000000000000000000000000000000000000600052603260045260246000fd5b7f4e487b7100000000000000000000000000000000000000000000000000000000600052604160045260246000fd5b600080fd5b600080fd5b600080fd5b600080fd5b6000601f19601f8301169050919050565b7f6465636c696e6564000000000000000000000000000000000000000000000000600082015250565b7f7061696400000000000000000000000000000000000000000000000000000000600082015250565b7f4552524f523a494e56414c49445f505249434500000000000000000000000000600082015250565b6121ab81611f28565b81146121b657600080fd5b50565b6121c281611f52565b81146121cd57600080fd5b50565b6121d981611f5c565b81146121e457600080fd5b5056fea264697066735822122076422cdc8fc2445158cc41091b43b50fa37deddf0576c73cdb02bc21654677da64736f6c63430008070033",
  "linkReferences": {},
  "deployedLinkReferences": {}
}